{
  "transactions": [
    {
      "hash": "0xcd4e41d7271aa38816eda8246674f5b7803a777b131d26ad60ba384bc8799d4b",
      "transactionType": "CALL",
      "contractName": null,
      "contractAddress": "0xcf7ed3acca5a467e9e704c703e8d87f634fb0fc9",
      "function": "addConsumer(uint64,address)",
      "arguments": [
        "1",
        "0x0DCd1Bf9A1b36cE34237eEaFef220932846BCD82"
      ],
      "transaction": {
        "from": "0xf39fd6e51aad88f6f4ce6ab8827279cfffb92266",
        "to": "0xcf7ed3acca5a467e9e704c703e8d87f634fb0fc9",
        "gas": "0x265da",
        "value": "0x0",
        "input": "0x7341c10c00000000000000000000000000000000000000000000000000000000000000010000000000000000000000000dcd1bf9a1b36ce34237eeafef220932846bcd82",
        "nonce": "0xe",
        "chainId": "0x539"
      },
      "additionalContracts": [],
      "isFixedGasLimit": false
    }
  ],
  "receipts": [
    {
      "status": "0x1",
      "cumulativeGasUsed": "0x1a3bb",
      "logs": [
        {
          "address": "0xcf7ed3acca5a467e9e704c703e8d87f634fb0fc9",
          "topics": [
            "0x43dc749a04ac8fb825cbd514f7c0e13f13bc6f2ee66043b76629d51776cff8e0",
            "0x0000000000000000000000000000000000000000000000000000000000000001"
          ],
          "data": "0x0000000000000000000000000dcd1bf9a1b36ce34237eeafef220932846bcd82",
          "blockHash": "0xbc3d5ec2c05e0a0d70a16417034f2efa081a9da9c88fba32198a99a0d2b3ef88",
          "blockNumber": "0x1f",
          "blockTimestamp": "0x67bde08e",
          "transactionHash": "0xcd4e41d7271aa38816eda8246674f5b7803a777b131d26ad60ba384bc8799d4b",
          "transactionIndex": "0x0",
          "logIndex": "0x0",
          "removed": false
        }
      ],
      "logsBloom": "0x00000000000000000000000000000000000000000000000000000000000000000000000000000000000000000000080000000000000000000000000000040001000000000000000000000000000000000000000000040000000000000000000000000000000080000000000000000000000000000000000000000000000000000000000008000000000000000000000000000000000000000000000000000000000000000000000000000080000000000000000000000000000000000000000000000000000000000000000000000000000000000000000000020000000040000000000000000000000000000000000000000000000000000000000000000000",
      "type": "0x2",
      "transactionHash": "0xcd4e41d7271aa38816eda8246674f5b7803a777b131d26ad60ba384bc8799d4b",
      "transactionIndex": "0x0",
      "blockHash": "0xbc3d5ec2c05e0a0d70a16417034f2efa081a9da9c88fba32198a99a0d2b3ef88",
      "blockNumber": "0x1f",
      "gasUsed": "0x1a3bb",
      "effectiveGasPrice": "0x144d857",
      "blobGasPrice": "0x1",
      "from": "0xf39fd6e51aad88f6f4ce6ab8827279cfffb92266",
      "to": "0xcf7ed3acca5a467e9e704c703e8d87f634fb0fc9",
      "contractAddress": null
    }
  ],
  "libraries": [],
  "pending": [],
  "returns": {},
  "timestamp": 1740497038,
  "chain": 1337,
  "commit": "a9c052b"
}