{
  "transactions": [
    {
      "hash": "0x237fc93683b03e4a17a15951d3ab715af45a2ae9f5f4d0573604b6c98c785bb0",
      "transactionType": "CALL",
      "contractName": null,
      "contractAddress": "0xcf7ed3acca5a467e9e704c703e8d87f634fb0fc9",
      "function": "addConsumer(uint64,address)",
      "arguments": [
        "1",
        "0x0DCd1Bf9A1b36cE34237eEaFef220932846BCD82"
      ],
      "transaction": {
        "from": "0xf39fd6e51aad88f6f4ce6ab8827279cfffb92266",
        "to": "0xcf7ed3acca5a467e9e704c703e8d87f634fb0fc9",
        "gas": "0x265da",
        "value": "0x0",
        "input": "0x7341c10c00000000000000000000000000000000000000000000000000000000000000010000000000000000000000000dcd1bf9a1b36ce34237eeafef220932846bcd82",
        "nonce": "0xd",
        "chainId": "0x539"
      },
      "additionalContracts": [],
      "isFixedGasLimit": false
    }
  ],
  "receipts": [
    {
      "status": "0x1",
      "cumulativeGasUsed": "0x1a3bb",
      "logs": [
        {
          "address": "0xcf7ed3acca5a467e9e704c703e8d87f634fb0fc9",
          "topics": [
            "0x43dc749a04ac8fb825cbd514f7c0e13f13bc6f2ee66043b76629d51776cff8e0",
            "0x0000000000000000000000000000000000000000000000000000000000000001"
          ],
          "data": "0x0000000000000000000000000dcd1bf9a1b36ce34237eeafef220932846bcd82",
          "blockHash": "0x6c735d52eb1d757eb4f2c160a7de6b4faa7e1823b7054892f0f0aa78709fb1a2",
          "blockNumber": "0x9",
          "blockTimestamp": "0x67bde306",
          "transactionHash": "0x237fc93683b03e4a17a15951d3ab715af45a2ae9f5f4d0573604b6c98c785bb0",
          "transactionIndex": "0x0",
          "logIndex": "0x0",
          "removed": false
        }
      ],
      "logsBloom": "0x00000000000000000000000000000000000000000000000000000000000000000000000000000000000000000000080000000000000000000000000000040001000000000000000000000000000000000000000000040000000000000000000000000000000080000000000000000000000000000000000000000000000000000000000008000000000000000000000000000000000000000000000000000000000000000000000000000080000000000000000000000000000000000000000000000000000000000000000000000000000000000000000000020000000040000000000000000000000000000000000000000000000000000000000000000000",
      "type": "0x2",
      "transactionHash": "0x237fc93683b03e4a17a15951d3ab715af45a2ae9f5f4d0573604b6c98c785bb0",
      "transactionIndex": "0x0",
      "blockHash": "0x6c735d52eb1d757eb4f2c160a7de6b4faa7e1823b7054892f0f0aa78709fb1a2",
      "blockNumber": "0x9",
      "gasUsed": "0x1a3bb",
      "effectiveGasPrice": "0x70bc09b4",
      "blobGasPrice": "0x1",
      "from": "0xf39fd6e51aad88f6f4ce6ab8827279cfffb92266",
      "to": "0xcf7ed3acca5a467e9e704c703e8d87f634fb0fc9",
      "contractAddress": null
    }
  ],
  "libraries": [],
  "pending": [],
  "returns": {},
  "timestamp": 1740497670,
  "chain": 1337,
  "commit": "a9c052b"
}