{
  "transactions": [
    {
      "hash": "0x335d4964d684d83e7a4911ae95e8c9be3206e863dd0a111db6faa093a0b78c65",
      "transactionType": "CALL",
      "contractName": null,
      "contractAddress": "0xcf7ed3acca5a467e9e704c703e8d87f634fb0fc9",
      "function": "addConsumer(uint64,address)",
      "arguments": [
        "1",
        "0xB7f8BC63BbcaD18155201308C8f3540b07f84F5e"
      ],
      "transaction": {
        "from": "0xf39fd6e51aad88f6f4ce6ab8827279cfffb92266",
        "to": "0xcf7ed3acca5a467e9e704c703e8d87f634fb0fc9",
        "gas": "0x265da",
        "value": "0x0",
        "input": "0x7341c10c0000000000000000000000000000000000000000000000000000000000000001000000000000000000000000b7f8bc63bbcad18155201308c8f3540b07f84f5e",
        "nonce": "0xe",
        "chainId": "0x539"
      },
      "additionalContracts": [],
      "isFixedGasLimit": false
    }
  ],
  "receipts": [
    {
      "status": "0x1",
      "cumulativeGasUsed": "0x1a3bb",
      "logs": [
        {
          "address": "0xcf7ed3acca5a467e9e704c703e8d87f634fb0fc9",
          "topics": [
            "0x43dc749a04ac8fb825cbd514f7c0e13f13bc6f2ee66043b76629d51776cff8e0",
            "0x0000000000000000000000000000000000000000000000000000000000000001"
          ],
          "data": "0x000000000000000000000000b7f8bc63bbcad18155201308c8f3540b07f84f5e",
          "blockHash": "0x0d905e2ad31a66fcd3a2770d15eb74553202fe71fba9109a6bb3cb608dd44b10",
          "blockNumber": "0x9",
          "blockTimestamp": "0x67bde8fa",
          "transactionHash": "0x335d4964d684d83e7a4911ae95e8c9be3206e863dd0a111db6faa093a0b78c65",
          "transactionIndex": "0x0",
          "logIndex": "0x0",
          "removed": false
        }
      ],
      "logsBloom": "0x00000000000000000000000000000000000000000000000000000000000000000000000000000000000000000000080000000000000000000000000000040001000000000000000000000000000000000000000000040000000000000000000000000000000080000000000000000000000000000000000000000000000000000000000008000000000000000000000000000000000000000000000000000000000000000000000000000080000000000000000000000000000000000000000000000000000000000000000000000000000000000000000000020000000040000000000000000000000000000000000000000000000000000000000000000000",
      "type": "0x2",
      "transactionHash": "0x335d4964d684d83e7a4911ae95e8c9be3206e863dd0a111db6faa093a0b78c65",
      "transactionIndex": "0x0",
      "blockHash": "0x0d905e2ad31a66fcd3a2770d15eb74553202fe71fba9109a6bb3cb608dd44b10",
      "blockNumber": "0x9",
      "gasUsed": "0x1a3bb",
      "effectiveGasPrice": "0x714cccc5",
      "blobGasPrice": "0x1",
      "from": "0xf39fd6e51aad88f6f4ce6ab8827279cfffb92266",
      "to": "0xcf7ed3acca5a467e9e704c703e8d87f634fb0fc9",
      "contractAddress": null
    }
  ],
  "libraries": [],
  "pending": [],
  "returns": {},
  "timestamp": 1740499195,
  "chain": 1337,
  "commit": "a9c052b"
}