{
  "transactions": [
    {
      "hash": "0xffba874a0a073873b1608908e4236d97f263687709d6464e56a5a549402eac91",
      "transactionType": "CALL",
      "contractName": null,
      "contractAddress": "0x5fbdb2315678afecb367f032d93f642f64180aa3",
      "function": "transferAndCall(address,uint256,bytes)",
      "arguments": [
        "0xCf7Ed3AccA5a467e9e704C703E8D87F634fB0Fc9",
        "1000000000000000000",
        "0x0000000000000000000000000000000000000000000000000000000000000001"
      ],
      "transaction": {
        "from": "0xf39fd6e51aad88f6f4ce6ab8827279cfffb92266",
        "to": "0x5fbdb2315678afecb367f032d93f642f64180aa3",
        "gas": "0x14804",
        "value": "0x0",
        "input": "0x4000aea0000000000000000000000000cf7ed3acca5a467e9e704c703e8d87f634fb0fc90000000000000000000000000000000000000000000000000de0b6b3a7640000000000000000000000000000000000000000000000000000000000000000006000000000000000000000000000000000000000000000000000000000000000200000000000000000000000000000000000000000000000000000000000000001",
        "nonce": "0xd",
        "chainId": "0x539"
      },
      "additionalContracts": [],
      "isFixedGasLimit": false
    }
  ],
  "receipts": [
    {
      "status": "0x1",
      "cumulativeGasUsed": "0xe049",
      "logs": [
        {
          "address": "0x5fbdb2315678afecb367f032d93f642f64180aa3",
          "topics": [
            "0xddf252ad1be2c89b69c2b068fc378daa952ba7f163c4a11628f55a4df523b3ef",
            "0x000000000000000000000000f39fd6e51aad88f6f4ce6ab8827279cfffb92266",
            "0x000000000000000000000000cf7ed3acca5a467e9e704c703e8d87f634fb0fc9"
          ],
          "data": "0x0000000000000000000000000000000000000000000000000de0b6b3a7640000",
          "blockHash": "0xe9df1d06fafb8e462c99b1a42ddb60ec6b510d8aa6ffd949e7de1c6a7e1d6d1a",
          "blockNumber": "0x7",
          "blockTimestamp": "0x67bde439",
          "transactionHash": "0xffba874a0a073873b1608908e4236d97f263687709d6464e56a5a549402eac91",
          "transactionIndex": "0x0",
          "logIndex": "0x0",
          "removed": false
        },
        {
          "address": "0x5fbdb2315678afecb367f032d93f642f64180aa3",
          "topics": [
            "0xe19260aff97b920c7df27010903aeb9c8d2be5d310a2c67824cf3f15396e4c16",
            "0x000000000000000000000000f39fd6e51aad88f6f4ce6ab8827279cfffb92266",
            "0x000000000000000000000000cf7ed3acca5a467e9e704c703e8d87f634fb0fc9"
          ],
          "data": "0x0000000000000000000000000000000000000000000000000de0b6b3a7640000000000000000000000000000000000000000000000000000000000000000004000000000000000000000000000000000000000000000000000000000000000200000000000000000000000000000000000000000000000000000000000000001",
          "blockHash": "0xe9df1d06fafb8e462c99b1a42ddb60ec6b510d8aa6ffd949e7de1c6a7e1d6d1a",
          "blockNumber": "0x7",
          "blockTimestamp": "0x67bde439",
          "transactionHash": "0xffba874a0a073873b1608908e4236d97f263687709d6464e56a5a549402eac91",
          "transactionIndex": "0x0",
          "logIndex": "0x1",
          "removed": false
        },
        {
          "address": "0xcf7ed3acca5a467e9e704c703e8d87f634fb0fc9",
          "topics": [
            "0xd39ec07f4e209f627a4c427971473820dc129761ba28de8906bd56f57101d4f8",
            "0x0000000000000000000000000000000000000000000000000000000000000001"
          ],
          "data": "0x0000000000000000000000000000000000000000000000000de0b6b3a76400000000000000000000000000000000000000000000000000001bc16d674ec80000",
          "blockHash": "0xe9df1d06fafb8e462c99b1a42ddb60ec6b510d8aa6ffd949e7de1c6a7e1d6d1a",
          "blockNumber": "0x7",
          "blockTimestamp": "0x67bde439",
          "transactionHash": "0xffba874a0a073873b1608908e4236d97f263687709d6464e56a5a549402eac91",
          "transactionIndex": "0x0",
          "logIndex": "0x2",
          "removed": false
        }
      ],
      "logsBloom": "0x00000000000000000000000000000000000000000000000200000000020000000000000000000080000000000000080000000000000000000000000000040001000000000000000000000008000000000000000000040000000020000000000000000040000000000000000100000000000000000000000000000010000000000000000008000000000000000000000010000020000000000000000200000000000000001000000000000000000000000000000000000000000400000000000000000042000000200000000000000000000000002000000000000000000040000000000000000000008000000000000000000000000000000000000000000000",
      "type": "0x2",
      "transactionHash": "0xffba874a0a073873b1608908e4236d97f263687709d6464e56a5a549402eac91",
      "transactionIndex": "0x0",
      "blockHash": "0xe9df1d06fafb8e462c99b1a42ddb60ec6b510d8aa6ffd949e7de1c6a7e1d6d1a",
      "blockNumber": "0x7",
      "gasUsed": "0xe049",
      "effectiveGasPrice": "0x77e02814",
      "blobGasPrice": "0x1",
      "from": "0xf39fd6e51aad88f6f4ce6ab8827279cfffb92266",
      "to": "0x5fbdb2315678afecb367f032d93f642f64180aa3",
      "contractAddress": null
    }
  ],
  "libraries": [],
  "pending": [],
  "returns": {},
  "timestamp": 1740497977,
  "chain": 1337,
  "commit": "a9c052b"
}