{
  "transactions": [
    {
      "hash": "0xb0350361ba9ca7e9b3131a984e88aa3929f03eb9a1a32a8008b66965657f3163",
      "transactionType": "CALL",
      "contractName": null,
      "contractAddress": "0xb7f8bc63bbcad18155201308c8f3540b07f84f5e",
      "function": "sendRequest(uint64)",
      "arguments": [
        "1"
      ],
      "transaction": {
        "from": "0xf39fd6e51aad88f6f4ce6ab8827279cfffb92266",
        "to": "0xb7f8bc63bbcad18155201308c8f3540b07f84f5e",
        "gas": "0x5d2ec",
        "value": "0x0",
        "input": "0x2f9d62540000000000000000000000000000000000000000000000000000000000000001",
        "nonce": "0xf",
        "chainId": "0x539"
      },
      "additionalContracts": [],
      "isFixedGasLimit": false
    }
  ],
  "receipts": [
    {
      "status": "0x1",
      "cumulativeGasUsed": "0x436ea",
      "logs": [
        {
          "address": "0xdc64a140aa3e981100a9beca4e685f962f0cf6c9",
          "topics": [
            "0xbf50768ccf13bd0110ca6d53a9c4f1f3271abdd4c24a56878863ed25b20598ff",
            "0xe5dd181ad09d0f2bf06632b96ee3fab0fc14b61ad1c6cef17a56bb56a065fb86",
            "0x000000000000000000000000b7f8bc63bbcad18155201308c8f3540b07f84f5e"
          ],
          "data": "0x000000000000000000000000f39fd6e51aad88f6f4ce6ab8827279cfffb922660000000000000000000000000000000000000000000000000000000000000001000000000000000000000000f39fd6e51aad88f6f4ce6ab8827279cfffb9226600000000000000000000000000000000000000000000000000000000000002400000000000000000000000000000000000000000000000000000000000000001000000000000000000000000000000000000000000000000000000000000000000000000000000000000000000000000000000000000000000000000000493e0e5dd181ad09d0f2bf06632b96ee3fab0fc14b61ad1c6cef17a56bb56a065fb86000000000000000000000000dc64a140aa3e981100a9beca4e685f962f0cf6c900000000000000000000000000000000000000000000000001b62fb06a16dc60000000000000000000000000b7f8bc63bbcad18155201308c8f3540b07f84f5e000000000000000000000000000000000000000000000000000000000000000100000000000000000000000000000000000000000000000000000000000493e000000000000000000000000000000000000000000000000000000000000000000000000000000000000000000000000000000000000000000000000000000000000000000000000000000000000000000000000000000000000000000000ae47000000000000000000000000000000000000000000000000000000000000ae470000000000000000000000000000000000000000000000000000000067bde5c300000000000000000000000000000000000000000000000000000000000000906c636f64654c6f636174696f6ec258200000000000000000000000000000000000000000000000000000000000000000686c616e6775616765c25820000000000000000000000000000000000000000000000000000000000000000066736f75726365782b72657475726e2046756e6374696f6e732e656e636f6465537472696e672827497420776f726b732127293b00000000000000000000000000000000",
          "blockHash": "0xf49164c37d00e6b9f7030f106d681c8c57ed736bcdb68a48fa2eb55ee06a4d34",
          "blockNumber": "0x9",
          "blockTimestamp": "0x67bde5c3",
          "transactionHash": "0xb0350361ba9ca7e9b3131a984e88aa3929f03eb9a1a32a8008b66965657f3163",
          "transactionIndex": "0x0",
          "logIndex": "0x0",
          "removed": false
        },
        {
          "address": "0xcf7ed3acca5a467e9e704c703e8d87f634fb0fc9",
          "topics": [
            "0xf67aec45c9a7ede407974a3e0c3a743dffeab99ee3f2d4c9a8144c2ebf2c7ec9",
            "0xe5dd181ad09d0f2bf06632b96ee3fab0fc14b61ad1c6cef17a56bb56a065fb86",
            "0x6c6f63616c2d66756e6374696f6e732d746573746e6574000000000000000000",
            "0x0000000000000000000000000000000000000000000000000000000000000001"
          ],
          "data": "0x000000000000000000000000f39fd6e51aad88f6f4ce6ab8827279cfffb92266000000000000000000000000b7f8bc63bbcad18155201308c8f3540b07f84f5e000000000000000000000000f39fd6e51aad88f6f4ce6ab8827279cfffb9226600000000000000000000000000000000000000000000000000000000000000e0000000000000000000000000000000000000000000000000000000000000000100000000000000000000000000000000000000000000000000000000000493e000000000000000000000000000000000000000000000000001b62fb06a16dc6000000000000000000000000000000000000000000000000000000000000000906c636f64654c6f636174696f6ec258200000000000000000000000000000000000000000000000000000000000000000686c616e6775616765c25820000000000000000000000000000000000000000000000000000000000000000066736f75726365782b72657475726e2046756e6374696f6e732e656e636f6465537472696e672827497420776f726b732127293b00000000000000000000000000000000",
          "blockHash": "0xf49164c37d00e6b9f7030f106d681c8c57ed736bcdb68a48fa2eb55ee06a4d34",
          "blockNumber": "0x9",
          "blockTimestamp": "0x67bde5c3",
          "transactionHash": "0xb0350361ba9ca7e9b3131a984e88aa3929f03eb9a1a32a8008b66965657f3163",
          "transactionIndex": "0x0",
          "logIndex": "0x1",
          "removed": false
        },
        {
          "address": "0xb7f8bc63bbcad18155201308c8f3540b07f84f5e",
          "topics": [
            "0x1131472297a800fee664d1d89cfa8f7676ff07189ecc53f80bbb5f4969099db8",
            "0xe5dd181ad09d0f2bf06632b96ee3fab0fc14b61ad1c6cef17a56bb56a065fb86"
          ],
          "data": "0x",
          "blockHash": "0xf49164c37d00e6b9f7030f106d681c8c57ed736bcdb68a48fa2eb55ee06a4d34",
          "blockNumber": "0x9",
          "blockTimestamp": "0x67bde5c3",
          "transactionHash": "0xb0350361ba9ca7e9b3131a984e88aa3929f03eb9a1a32a8008b66965657f3163",
          "transactionIndex": "0x0",
          "logIndex": "0x2",
          "removed": false
        }
      ],
      "logsBloom": "0x00000000100800000000000000000000000000000044000000000000000000000000080002000000000000000000080000000000000000000000000000040001000000000000000000000002000000000800800000040000000000000000000000000000000000000000000000000000000000008000000000000400000020000000000008000000000000000000000000000000000000000000001000000000000000000000100000000000000000000000000000000000000000000000000040000000000000000080800808000000000000000020020000000000000040000000000000000000000000000000000000000001000000000100000000200000",
      "type": "0x2",
      "transactionHash": "0xb0350361ba9ca7e9b3131a984e88aa3929f03eb9a1a32a8008b66965657f3163",
      "transactionIndex": "0x0",
      "blockHash": "0xf49164c37d00e6b9f7030f106d681c8c57ed736bcdb68a48fa2eb55ee06a4d34",
      "blockNumber": "0x9",
      "gasUsed": "0x436ea",
      "effectiveGasPrice": "0x71530f2c",
      "blobGasPrice": "0x1",
      "from": "0xf39fd6e51aad88f6f4ce6ab8827279cfffb92266",
      "to": "0xb7f8bc63bbcad18155201308c8f3540b07f84f5e",
      "contractAddress": null
    }
  ],
  "libraries": [],
  "pending": [],
  "returns": {},
  "timestamp": 1740498371,
  "chain": 1337,
  "commit": "a9c052b"
}